:100000000C94B1000C94CE000C94CE000C94CE0055
:100010000C94CE000C94CE000C94CE000C94CE0028
:100020000C94CE000C94CE000C94CE000C94CE0018
:100030000C94CE000C94F7000C94CE000C94CE00DF
:100040000C94CE000C94CE000C94CE000C94CE00F8
:100050000C94CE000C94CE000C94CE000C94CE00E8
:100060000C94CE000C94CE0000407A10F35A00A0FD
:10007000724E18090010A5D4E80000E87648170071
:1000800000E40B54020000CA9A3B000000E1F505B1
:10009000000080969800000040420F000000A086FB
:1000A00001000000102700000000E803000000002D
:1000B0006400000000000A000000000001000000D1
:1000C00000002C76D888DC674F0823DFC1DFAE59EB
:1000D000E1B1B796E5E3E453C63AE651997696E87E
:1000E000E6C28426EB898C9B62ED407C6FFCEFBC02
:1000F0009C9F40F2BAA56FA5F490055A2AF75C932D
:100100006B6CF9676DC11BFCE0E40D47FEF520E662
:10011000B500D0ED902E0300943577050080841E45
:10012000080000204E0A000000C80C333333330FA0
:10013000986E12831141EF8D2114893BE65516CF3D
:10014000FEE6DB18D1844B381BF77C1D901DA4BB49
:10015000E424203284725E228100C9F124ECA1E5FE
:100160003D2711241FBECFEFD8E0DEBFCDBF11E089
:10017000A0E0B1E0E0EEFAE002C005900D92A032FE
:10018000B107D9F721E0A0E2B1E001C01D92A2328F
:10019000B207E1F70E940E010C946E050C9400006A
:1001A000FC019191992389F09BB9419898B1956090
:1001B00098B985E08A95F1F7000042988FE99FE0B1
:1001C0000197F1F700C00000ECCF08958BB988B11A
:1001D0008C7F88B9429A85E08A95F1F700004298B1
:1001E0008FED9EE20197F1F700C0000008951F9285
:1001F0000F920FB60F9211248F939F93809120013D
:1002000090912101019690932101809320019F916B
:100210008F910F900FBE0F901F901895CF93DF9383
:10022000CDB7DEB72A970FB6F894DEBF0FBECDBFAD
:1002300082E084B98FEF85B987B997B1976097B994
:100240008AB92FEF89EF90E0215080409040E1F78C
:1002500000C0000088E30E94E6008CE00E94E600F7
:1002600086E00E94E60081E00E94E60080E80E94AD
:10027000E60080E80E94E60080E091E00E94D00065
:10028000789481E080936F001092810081E4C82E01
:1002900090E2E92EFF24F39420E1D22E38E0B32E31
:1002A000299A25E32A95F1F70000299810928500F4
:1002B00010928400C0928100E6BAF6BAB59BFECFD8
:1002C0001092850010928400F0928100E6BAF6BA8E
:1002D0001092210110922001B59BFECF6091860003
:1002E0007091870090E080E00E94AE0429E23CE338
:1002F00049EE53E40E943A042B013C018E010F5F4A
:100300001F4F22E042E00E94AE0161E171E0C801AE
:100310000E94630580EC0E94E60088E191E00E9463
:10032000D00087EC0E94E600C8010E94D0008FEF49
:1003300093EC29E0815090402040E1F700C000009C
:1003400020E030E048E453E4C301B2010E943A05E2
:1003500087FD02C0B8B8A4CFD8B8A2CFEF920F9350
:100360001F93CF93DF93E80134E047FD34E1042E7F
:10037000000C550B57FF03C0519541955109E32ED1
:10038000022F242FAE010E94CC01CE01DF91CF912C
:100390001F910F91EF900895A9E0B0E0E2EDF1E038
:1003A0000C9409046A01F22EB02E102FFBE3AF2E3D
:1003B000A01608F41BE31F5F012F27E0AE014F5F7B
:1003C0005F4F0E942B03BC018981982F9970913057
:1003D00009F43FC09BE2E1FC04C09E2D9170E0FC5B
:1003E0003AC05E2D5071E82FE87083FF46C084E06C
:1003F000911101C083E0EF2DE81B8F1508F0E0E0BC
:10040000D6018E2F20E2552351F1992329F0D601F0
:100410009C93C60101966C0196012D5F3F4FE2FE51
:1004200024C08EE4D6018C9391E411969C9311978D
:1004300012968C93D9018E2F90E281111BC0E20F8E
:10044000F32FF11D10828EEF9FEF2996ECE00C94B4
:1004500025049DE2C6CF90E2C4CF2D938150811137
:10046000FCCFCE0ED11CE0E0D0CF8EE6D6018C932F
:1004700091E6DBCF9D938150E0CF482F447082FFFF
:100480003DC084E0911101C083E08F1510F4EF2D81
:10049000E81BD6018E2F20E2552309F1992329F07C
:1004A000D6019C93C60101966C0196012D5F3F4FCA
:1004B000E2FE1BC089E4D6018C938EE411968C93E6
:1004C000119786E412968C93D9018E2F90E288239F
:1004D00009F4B5CF9D938150FACF2D9381508111AE
:1004E000FCCFCE0ED11CE0E0D9CF89E6D6018C93AB
:1004F0008EE611968C93119786E6E4CF9B0177FFE9
:1005000002C030E020E0A1E0B0E0911102C0B0E014
:10051000A0E0F9013196AE0FBF1F8B2C912CBB20B0
:1005200009F461C05401EFEFAE1ABE0AAA0DBB1D5B
:10053000FA161B0619F014F04F2D4A1B511188C0F2
:10054000E3FC59C07601A42FB0E2A1114FC0C40E44
:10055000D11C992309F45BC040E0D6011196F60145
:1005600090836D01552309F448C0012F060F9A812D
:10057000582F507184FF03C0913309F401501016B5
:100580000CF047C0093008F008E0EEE2FE2E5B01F7
:10059000A01AB10885019194819491082F3F3207E8
:1005A00029F4D601FC92F60131966F0162177307A8
:1005B00094F1021713077CF5DB01A21BB30BAA24ED
:1005C000A394B12CAC0EBD1EAA0DBB1D11968C912F
:1005D00021503109D601119628153905F4F0F6019C
:1005E00080836D01DBCFB12CA12CA0CFF701B1939B
:1005F0007F01A150AACF9111B0CFD601942F50E323
:1006000002C05D9391509111FCCFC40ED11C40E00B
:10061000ACCF01E0BACF80E3DBCF6217730731F4D0
:10062000963388F4953311F4552369F0F6018083ED
:10063000FD01842F90E2811108C0A40FB11D1C920E
:1006400090E080E002CF81E3F1CF91938150F3CF2E
:10065000911183CF8ACF283008F027E03327DA01C1
:10066000990F311D87FD916000966105710539F480
:1006700032602E5F3D9330E32A95E1F708959F3F66
:1006800030F080387105610509F03C5F3C5F3D93B7
:10069000913008F08068911DDF93CF931F930F93E3
:1006A000FF92EF92192F987F9695E92F9695969540
:1006B000E90FFF27EE53FF4F99273327EE24FF243E
:1006C000A701E70105900894079428F4360FE71E68
:1006D000F81E491F511D660F771F881F991F06942A
:1006E000A1F70590079428F4E70EF81E491F561F3E
:1006F000C11D770F881F991F661F0694A1F70590EB
:10070000079428F4F80E491F561FC71FD11D880FE4
:10071000991F661F771F0694A1F70590079420F490
:10072000490F561FC71FD81F990F661F771F881FB5
:100730000694A9F784911095177041F0D695C79546
:1007400057954795F794E7941A95C1F7E8E6F0E0D6
:1007500068941590159135916591959105907FE27A
:100760007395E118F10A430B560BC90BD009C0F77A
:10077000E10CF11E431F561FC91FD01D7EF47033BC
:1007800011F48A95E6CFE894015030F0080F0AF48E
:100790000027021708F4202F2395022F7A3328F020
:1007A00079E37D932A95E9F710C07D932A9589F620
:1007B000069497956795379517951794E118F10A60
:1007C000430B560BC90BD00998F023957E91739576
:1007D0007A3308F070E37C932013B8F77E91706150
:1007E0007D9330F0839571E37D9370E32A95E1F773
:1007F0001124EF90FF900F911F91CF91DF919927D6
:1008000087FD909508952F923F924F925F926F923D
:100810007F928F929F92AF92BF92CF92DF92EF9290
:10082000FF920F931F93CF93DF93CDB7DEB7CA1B11
:10083000DB0B0FB6F894DEBF0FBECDBF09942A883C
:10084000398848885F846E847D848C849B84AA84E4
:10085000B984C884DF80EE80FD800C811B81AA8171
:10086000B981CE0FD11D0FB6F894DEBF0FBECDBF3C
:10087000ED0108950E944E040C9400050E94F904B5
:1008800058F00E94F20440F029F45F3F29F00C94E4
:10089000E90451110C9434050C94EF040E941105E5
:1008A00068F39923B1F3552391F3951B550BBB279F
:1008B000AA2762177307840738F09F5F5F4F220FE4
:1008C000331F441FAA1FA9F335D00E2E3AF0E0E8DB
:1008D00032D091505040E695001CCAF72BD0FE2F25
:1008E00029D0660F771F881FBB1F261737074807B9
:1008F000AB07B0E809F0BB0B802DBF01FF27935871
:100900005F4F3AF09E3F510578F00C94E9040C9447
:1009100034055F3FE4F3983ED4F386957795679569
:10092000B795F7959F5FC9F7880F911D96958795A5
:1009300097F90895E1E0660F771F881FBB1F6217C4
:1009400073078407BA0720F0621B730B840BBA0B82
:10095000EE1F88F7E0950895E89409C097FB3EF4F0
:1009600090958095709561957F4F8F4F9F4F9923FC
:10097000A9F0F92F96E9BB279395F695879577957A
:100980006795B795F111F8CFFAF4BB0F11F460FF3A
:100990001BC06F5F7F4F8F4F9F4F16C0882311F092
:1009A00096E911C0772321F09EE8872F762F05C0A6
:1009B000662371F096E8862F70E060E02AF09A9541
:1009C000660F771F881FDAF7880F9695879597F936
:1009D000089597F99F6780E870E060E008959FEFC1
:1009E00080EC089500240A941616170618060906C6
:1009F000089500240A941216130614060506089595
:100A0000092E0394000C11F4882352F0BB0F40F41C
:100A1000BF2B11F460FF04C06F5F7F4F8F4F9F4F5C
:100A2000089557FD9058440F551F59F05F3F71F0DE
:100A30004795880F97FB991F61F09F3F79F0879545
:100A40000895121613061406551FF2CF4695F1DFCE
:100A500008C0161617061806991FF1CF869571055E
:100A6000610508940895E894BB2766277727CB0192
:100A700097F908950E943F0508F48FEF0895990FA4
:100A80000008550FAA0BE0E8FEEF16161706E80758
:100A9000F907C0F012161306E407F50798F0621B79
:100AA000730B840B950B39F40A2661F0232B242B4E
:100AB000252B21F408950A2609F4A140A6958FEF6D
:100AC000811D811D0895FB01DC010D900020E9F7D7
:100AD000119701900D920020E1F70895F894FFCF4F
:100AE000434F564944204449535420434845434BBF
:100AF0000020636D2020200044697374203D200095
:00000001FF
